:100000000C945C000C9430010C9409010C94790060
:100010000C9479000C9479000C9479000C9479007C
:100020000C9479000C9479000C9479000C9479006C
:100030000C9479000C9479000C9479000C9479005C
:100040000C94BF000C9479000C9479000C94790006
:100050000C9479000C9479000C9479000C9479003C
:100060000C9479000C947900000000080002010053
:100070000003040700000000000000000000000072
:10008000250028002B0000000000240027002A0083
:10009000040404040404040402020202020203032E
:1000A0000303030301020408102040800102040836
:1000B000102001020408102011241FBECFEFD8E049
:1000C000DEBFCDBF11E0A0E0B1E0EAEEF3E002C098
:1000D00005900D92A430B107D9F721E0A4E0B1E07A
:1000E00001C01D92AD30B207E1F70E9457010C9498
:1000F000F3010C9400000895E3E7F0E08491EFEA47
:10010000F0E09491EBE9F0E0E491EE23B1F0882384
:1001100039F08330E9F090F4813001F1823011F14F
:10012000F0E0EE0FFF1FE458FF4FA591B4918FB799
:10013000F894EC919E2B9C938FBF08958730A9F083
:100140008830C9F0843061F7809180008F7D03C0D2
:10015000809180008F7780938000E2CF84B58F7785
:1001600084BDDECF84B58F7DFBCF8091B0008F77CB
:100170008093B000D5CF8091B0008F7DF9CF1F92D2
:100180000F920FB60F9211242F933F938F939F934B
:10019000AF93BF938091090190910A01A0910B0147
:1001A000B0910C013091080123E0230F2D3758F551
:1001B0000196A11DB11D2093080180930901909320
:1001C0000A01A0930B01B0930C018091040190915E
:1001D0000501A0910601B09107010196A11DB11D75
:1001E0008093040190930501A0930601B093070149
:1001F000BF91AF919F918F913F912F910F900FBE23
:100200000F901F90189526E8230F0296A11DB11D8F
:10021000D2CF1F920F920FB60F9211242F933F93BC
:100220004F935F936F937F938F939F93AF93BF93FE
:10023000EF93FF93E0910201F09103010995FF9183
:10024000EF91BF91AF919F918F917F916F915F914E
:100250004F913F912F910F900FBE0F901F901895C7
:100260001F920F920FB60F9211242F933F934F932B
:100270005F936F937F938F939F93AF93BF93EF930E
:10028000FF93E0910001F09101010995FF91EF9139
:10029000BF91AF919F918F917F916F915F914F919E
:1002A0003F912F910F900FBE0F901F90189578944B
:1002B00084B5826084BD84B5816084BD85B582606B
:1002C00085BD85B5816085BD80916E00816080931C
:1002D0006E00109281008091810082608093810085
:1002E0008091810081608093810080918000816095
:1002F000809380008091B10084608093B1008091F0
:10030000B00081608093B00080917A008460809317
:100310007A0080917A00826080937A0080917A00DE
:10032000816080937A0080917A00806880937A005F
:100330001092C100E6EAF0E02491E2E9F0E0849155
:100340008823C1F090E0880F991FFC01EA57FF4F06
:10035000C591D491FC01E458FF4FA591B4919FB78A
:10036000F8943881822F809583238883EC91E22B47
:10037000EC939FBFEFEAF0E02491EBE9F0E0849189
:10038000882399F090E0880F991FFC01EA57FF4FEE
:10039000A591B491FC01E458FF4F859194918FB7DA
:1003A000F894EC91E22BEC938FBF2CE730E0309384
:1003B000010120930001809169008C7F816080930E
:1003C0006900E89A3093010120930001809169004F
:1003D0008C7F80936900E89AC0E0D0E02097F1F329
:0A03E0000E940000FBCFF894FFCF4D
:0403EA007B007B0019
:00000001FF
